:020000040000FA
:1000000038090020D5000000B7210000C9200000F9
:1000100000000000000000000000000000000000E0
:100020000000000000000000000000004523000068
:100030000000000000000000BD210000612300005E
:10004000390800004108000049080000510800007C
:100050001F070000000000002124000031240000E0
:10006000B321000000000000432300000000000056
:10007000CD20000000000000FD2300000D24000042
:10008000B1210000000000001D2400001F2400001A
:1000900000000000BB2100008D260000CF200000E2
:1000A000C5060000B52100008B26000000000000FE
:1000B000C7060000B9210000412300000707000027
:1000C0000348854600F06AFA00480047DD42000018
:1000D000380900200448804704480047FEE7FEE74F
:1000E000FEE7FEE7FEE7FEE7BD230000C1000000DB
:1000F00030B50B46014600202022012409E00D46C0
:10010000D5409D4205D31D469540491B2546954047
:1001100040191546521E002DF1DC30BD70B500248B
:100120002546002801DA01244042002901DA012590
:100130004942FFF7DDFFAC4200D04042002C00D026
:10014000494270BD10B5202A04DB0846203AD04051
:10015000002110BD0B46D340D0402024A21A91406C
:100160000843194610BD03460B439B0703D009E023
:1001700008C9121F08C0042AFAD203E00B780370E2
:10018000401C491C521EF9D27047D2B201E00270E5
:10019000401C491EFBD270470022F6E710B51346FB
:1001A0000A4604461946FFF7F0FF204610BDF0B599
:1001B0001FB40646002082B00546402401910090FD
:1001C0001BE0019922460F463046FFF7BBFF049A19
:1001D000059B801A994110D310461946224600F01B
:1001E000EFF9361A8F410197224601200021009F26
:1001F00000F0E6F938184D4100902046641E0028B2
:10020000DFDC019B00982946324607B0F0BD0000B4
:10021000F0B507460846584087B0C00F0490480024
:100220000E46590040084908BC1A884105D2384694
:1002300031461E4617460B460246580040081043FA
:100240004CD0300D039040055900400D490D0590EC
:10025000401A0290402872DA18030121000B0905A8
:100260000843019004980092002805D00199524259
:100270000020884100920190029840210A1A0199B9
:10028000009800F09DF905460C466B4607CB00F040
:10029000A7F9C0197141039A0E0D0023D7175640D4
:1002A0001A467A40164344D0049A002A2DD0029A66
:1002B000012A039A15DC1205C01A91410126360560
:1002C000001C7141D20F059ED20700930192029645
:1002D0002A46234600F0A4F907B0F0BD384631465F
:1002E000FAE71605224A0F46B218C01AB741012193
:1002F0000905001C4F4100187F411146181879412B
:10030000E20F10436D19644113E0E2076D081543D5
:100310006408C2071443039A01261205C01A9141CA
:100320003605001C7141CE07400830434908C0180B
:1003300051412A46234600F066F9CDE7FFE70498CD
:1003400001224000C117121A00238B410498314644
:10035000C417381AA141EEE730B40124E407634022
:1003600030BC55E730B40124E407614030BC4FE7AE
:100370000000E0FFF0B51FB488B00B990998002485
:1003800048400999C00F490049080991C0070B99D5
:100390000090490049080B9109990898A64608431E
:1003A0001CD00B990A98084318D0099801244000E2
:1003B000420D4800410D099824050003000B20431D
:1003C00009900B980003000B20430B9050181C4918
:1003D0004018002201901446104605E00020014616
:1003E0000DB0F0BD032801DA034600E003239C466C
:1003F000C11A0AAE0AE05F0008ADED5B4F00F75B83
:100400007D430027AA187C41491C5B1E6145F2DD33
:10041000410004AB5A522104120C0A43240C401C24
:100420000828DFDB01980290009970460191009046
:10043000059B049A0799069800F0F2F8D0E70000AF
:100440000DFCFFFFF0B50C465C4085B0E40FE407FF
:1004500003944C000026640859009446490802465B
:100460000296224321D062460A431ED06200570DF5
:100470004A000E032303550D012402462C4924058E
:10048000781B1B0B360B4018234326436146009014
:100490001C46501AB44103D30098401C009002E05F
:1004A000921800985B41002803DA0020014605B04D
:1004B000F0BD0020012109050746864611E064468B
:1004C0001D46141BB54106D36546521BB341744605
:1004D00007430C43A646CD07400849082843921815
:1004E0005B4105460D43EAD11046184313D06046E0
:1004F000194650407140084306D06046101AB34177
:1005000006D20122002306E000220123DB0702E0DD
:100510000122D2435310009874460105381C6141F2
:10052000029C039D0019694100F06DF8BFE70000CF
:10053000FD0300004A0009030123090B1B051943B1
:100540000A4B10B5520D9A4202DA0020014610BD46
:10055000064B34339A4203DC9A1AFFF7F3FD10BDC1
:10056000034BD21800F02CF810BD0000FF03000070
:10057000CDFBFFFF10B5002904DB0124E407404256
:100580008C412146002B04DB1C460123DB07524231
:10059000A341994200D1904210BD0000064C0125B4
:1005A000064E05E0E36807CC2B430C3C984710341B
:1005B000B442F7D3FFF788FDB0560000D0560000D4
:1005C00010B5202A04DB0146203A9140002010BDDE
:1005D000914020239C1A0346E3401943904010BDEC
:1005E00010B5202A06DBCB170846203A1041C11768
:1005F0000B4306E00B461341D0402024A21A914041
:100600000843194610BD10B5002B08DA0024401C21
:10061000614192185B411A4301D14008400010BD6E
:10062000F0B51FB482B005460C0003D0084602F0B6
:100630006DF802E002F06AF8203002460090214690
:100640002846FFF7BDFF049B059A04460F46184352
:100650001143084314D0184610431BD00098402182
:100660000A1A18460599FFF76DFD05460E46009AD1
:1006700005990498FFF7A4FF084305D0012004E082
:100680002046394607B0F0BD0020C11705430E4390
:100690002C43374300990E986305401A7905E40A04
:1006A00000220C43FD0A0A3002D500200146E9E78A
:1006B0000105101969410C9C0D9D00196941FFF756
:1006C000A2FFDFE7704770470268120B1203026057
:1006D0000B684A681A438B681A43CB681A430B6944
:1006E0001A434B691A438B691A43CB691A43026058
:1006F0000A69402A04D10A6A42600A6A826101E0FA
:100700000A6A426070477047704770B504460D46EC
:100710001646257003F07EFFA060666070BD7047CE
:1007200000200E49C86172B600BF0D480D49C8606F
:100730000D48C86000BF0846006880088000C01CE3
:1007400008600A4801214903086000BF04480549C0
:10075000C8600020C86000BF62B67047180700205C
:100760005A5A000000040240A5A50000AAAA555547
:1007700000210D4AD16172B600BF0C490C4AD1600C
:100780000C49D16000BF1146096889088900891C9D
:1007900011600949016000BF0449D1600021D160A6
:1007A00000BF62B670470000180700205A5A0000C8
:1007B00000040240A5A50000AAAA555500220C4B32
:1007C000DA6172B600BF0B4A0B4BDA600B4ADA6093
:1007D00000BF1A46126892089200521C1A600170FB
:1007E00000BF044ADA600022DA6000BF62B67047D8
:1007F000180700205A5A000000040240A5A5000076
:1008000070B5044600F0C4FB05460BE0601C0028F0
:1008100008D0002C04D000F0BBFB401BA04201D943
:10082000032070BD03480068042108400428EDD06F
:100830000020F6E70004024010B501F0C9FF10BD2A
:1008400010B501F0C5FF10BD10B501F0C1FF10BD1E
:1008500010B501F0BDFF10BD10B50446002C01D14C
:10086000012010BD2920005D002805D1002128208D
:100870000155204600F00CF8022129200155211DC8
:100880002068FFF721FF0121292001550020E8E71A
:100890007047014608680068202210430A6810600B
:1008A00008680068802210430A68106000207047C2
:1008B00010B5044620680069C007C00F01214840F8
:1008C000484000280FD020680068202108404009D7
:1008D000002808D020684069012108432168486148
:1008E000204600F001F810BD10B504460B49206801
:1008F000884206D10A480068002802D008490868E2
:10090000804708492068884206D1074800680028C7
:1009100002D005490868804710BD0000001800405B
:1009200064000020001900406800002070B50446F3
:1009300000F02EFB06462546681C002802D005481C
:1009400000782D1800BF00F023FB801BA842FAD3CB
:1009500070BD0000E8000020F8B504460E460127EF
:10096000002500BF3948007E012801D10220F8BDD2
:1009700001203649087600BF2068022826D1344875
:10098000FFF73EFF002859D1401E00F0D1F8FFF7D5
:10099000C7FE2F48FFF734FF07460020C04300F092
:1009A0005FF872B600BF2B482B49C8602B48C8605F
:1009B00000BF0846006880088000086000BF254826
:1009C000C8600020C86000BF62B637E02048FFF76B
:1009D00017FF002832D1401E3060656827E02846A6
:1009E00000F0A6F82846FFF7C3FE1948FFF708FFF6
:1009F0000746284600F034F872B600BF154816497D
:100A0000C8601648C86000BF0846006880088000BB
:100A1000086000BF0F48C8600020C86000BF62B611
:100A2000002F01D0356008E0FF35FF350235A068A2
:100A3000400261684018A842D1D800BF00BF002022
:100A40000249087600BF384691E7000018070020E9
:100A500050C300005A5A000000040240A5A500003F
:100A6000014672B60120C003814214D200BF2D4856
:100A70002D4AD0602D48D06000BF104600698B0A17
:100A800001229A409043284A106100BF2548D06057
:100A90000020D06042E001200004814218D200BF53
:100AA0002048214AD0602148D06000BF10464269EA
:100AB0000120C003081A830A0120984082431A4883
:100AC000426100BF1748184AD0600020D06025E07E
:100AD000481C002820D100BF1248134AD060134898
:100AE000D06000BF104600690020106100BF0D48B3
:100AF000D0600020D06000BF00BF0A48D0600B4823
:100B0000D06000BF104640690020506100BF05481A
:100B1000D0600020D06001E00120704762B6002064
:100B2000FBE700005A5A000000040240A5A500009F
:100B3000014672B60120C003814214D200BF2D4885
:100B40002D4AD0602D48D06000BF104600698B0A46
:100B500001229A401043284A106100BF2548D06006
:100B60000020D06043E001200004814217D200BF82
:100B70002048214AD0602148D06000BF104640691B
:100B80000122D2038A1A930A01229A4010431A4A78
:100B9000506100BF1748D0600020D06027E0481C9B
:100BA000002822D100BF1348134AD0601348D060F8
:100BB00000BF104600690020C043106100BF0D480F
:100BC000D0600020D06000BF00BF0A48D0600B4852
:100BD000D06000BF104640690020C043506100BF94
:100BE0000448D0600020D06001E00120704762B668
:100BF0000020FBE75A5A000000040240A5A50000AF
:100C0000F0B51FB486B0074615461E460120039076
:100C100000240020029000BF3148007E012802D14C
:100C200002200BB0F0BD01202D49087600BF2D48F1
:100C3000FFF7E6FD03900398002849D1002F02D169
:100C4000012002900BE0012F02D10220029006E069
:100C5000022F02D10420029001E0082002900798A0
:100C6000FFF766FF00242CE0E20028463146049698
:100C70000595FFF767FAC0B2019007982018009019
:100C80000199FFF79BFD1748FFF7BAFD039072B675
:100C900000BF15481549C8601548C86000BF084620
:100CA000006880088000086000BF0F48C86000200E
:100CB000C86000BF62B60398002800D004E0601C42
:100CC000C4B202988442CFDB00BF0798FFF7C8FE8A
:100CD00000BF00200249087600BF0398A1E700008A
:100CE0001807002050C300005A5A000000040240B8
:100CF000A5A50000F8B50B460024002500950022AC
:100D0000002131E101258D402C461D6825400095CC
:100D1000009DA5427ED1056901268E40B54305613F
:100D2000056A01268E40B5430562456A01268E405C
:100D3000B5434562856A01268E40B5438562856C60
:100D40008F000F26BE40B5438564056801268E409E
:100D5000B5430560456BFF268E40B5434563056C82
:100D600001268E4035430564C56B4F000326BE4007
:100D7000B543C5635D68022D0DD1826C4D07EE0E43
:100D80000F25B5401646AE4332464E07F60E1D6B94
:100D9000B5402A4382645D68042D08D1826C4D07FA
:100DA000EE0E0F25B5401646AE43324682645D68AE
:100DB000032D0DD1826C4D07EE0E0F25B540164662
:100DC000AE4332464D07EE0E0F25B5402A438264EE
:100DD0005D68002D08D102684E07760F0125B540E9
:100DE0001646AE43324602605D68012D0CD10268A2
:100DF0004E07760FB5401646AE4332464E07760F85
:100E00000125B5402A4302601D69012D14D1856B6F
:100E10009E6900E09CE035438563426B4E07760F88
:100E20000125B5401646AE4332464E07760F1D6982
:100E3000B5402A43426322E05D69012D16D1426B21
:100E40004E07760FB5401646AE4332464263826B7C
:100E500010261546B5432A468263426B3601154675
:100E6000B5432A465D692A43426308E0426B4E0758
:100E7000760F0125B5401646AE4332464263456BB8
:100E8000EDB2002D05D0856B1E69360135438563B3
:100E900003E0856B1026B5438563C26B4E000325C6
:100EA000B5401646AE4332464E009D68B5402A43D3
:100EB000C263426803258D401646AE433246DD6864
:100EC0008D402A434260026C01258D401646AE4398
:100ED0003246DD698D402A430264426C01258D4013
:100EE0001646AE4332461D6A8D402A4342640126AF
:100EF00036075D683540B54235D1026901258D4020
:100F00001646AE4332465D6A8D402A430261026A4C
:100F100001258D401646AE4332469D6A8D402A43D8
:100F20000262DD6A002D02D0DD6A012D11D1826AD4
:100F300001258D401646AE4332468262426A012543
:100F40008D401646AE433246DD6A8D402A434262EA
:100F500009E0826A01258D401646AE4332460125DE
:100F60008D402A438262491C082900D2CAE6F8BD96
:100F70000246D3680B40002B01D0012000E0002086
:100F80007047002A01D0C16200E001637047000091
:100F90000148006870470000E00000200146002979
:100FA00001D1012070471D481D4A9061487A0028F0
:100FB00006D008684068012210430A68506005E0C6
:100FC00008684068400840000A685060087A0028B5
:100FD00006D008684068022210430A68506005E0A5
:100FE00008684068022290430A68506000BF0B48BE
:100FF0000B4A90610A68486890600848401E084A99
:10100000906100BF00BF55200A68106000BF034810
:10101000401E034A90610020C4E700009966AA556B
:10102000002400400146086840680422104000285F
:1010300003D0AA200A68106001E001207047002058
:10104000FCE700000348006803490978401801499B
:1010500008607047E0000020E800002010B5032081
:1010600000F004F800F02CF8002010BD70B5044624
:10107000104801787D20C000FFF73AF80646314657
:101080000D480068FFF734F8054600F01BFE002805
:1010900001D0012070BD042C07D221460020C0439E
:1010A00000F01EF80548046001E00120F2E700208E
:1010B000F0E70000E8000020EC000020E400002041
:1010C000704700000146002905DBCB06DB0E01223C
:1010D0009A40024B1A6000BF7047000000E100E038
:1010E00070B504460D462946204601F035FB70BD1B
:1010F00070B504460025022120680840022814D15A
:10110000042120680840042807D169484068000A83
:101110000002E16808436649486065480068000AC3
:101120000002A1680843624908602078C007C00F28
:10113000002853D06068012809D15D48806A0121E8
:1011400009030840000B002823D1012070BD60680E
:10115000022808D15648C06A40210840800900286A
:1011600017D10120F2E76068042809D15048006BCC
:10117000012109030840000B00280AD10120E5E7FE
:101180004B48406B402108408009002801D10120D4
:10119000DCE700BF4748464940310862464960687D
:1011A0000843434948624348401E41494031086270
:1011B00000BFFFF7EDFE0546606801280FD107E08C
:1011C000FFF7E6FE401B3D49884201D90320BDE7F9
:1011D0003748406A0007000F0128F1D137E0606806
:1011E00002280FD107E0FFF7D3FE401B33498842A6
:1011F00001D90320AAE72E48406A0007000F022801
:10120000F1D124E0606804280FD107E0FFF7C0FEA9
:10121000401B2A49884201D9032097E72448406AA5
:101220000007000F0428F1D111E0606808280ED1F2
:1012300007E0FFF7ADFE401B2049884201D903209B
:1012400084E71B48406A0007000F0828F1D10421F9
:1012500020680840042807D115484068000A0002A9
:10126000E16808431249486011480068C0B200288C
:101270000BD000F043F846080D480068C1B2304674
:10128000FEF736FF0E49086003E000F037F80C491E
:1012900008606068042802D06068082802D10A202B
:1012A000084908700320FFF7E1FE00204EE7000028
:1012B000000002409966AA550000695A8813000090
:1012C000EC000020E80000200148006870470000A2
:1012D000EC00002010B508484068002808D0FFF74F
:1012E000F3FF4408044841682046FEF701FF10BDA3
:1012F000FFF7EAFFFBE700000000024000210020AA
:10130000244A516A0A07120F012A04D0022A36D051
:10131000042A39D135E01F4A926A1205120D1E4B7C
:101320001B889A4201D11D4828E01A4A926A120588
:10133000120D194B5B889A4201D119481EE0154ADB
:10134000926A1205120D144B9B889A4201D11548DE
:1013500014E0104A926A1205120D0F4BDB889A4274
:1013600001D111480AE00B4A926A1205120D0A4B8C
:101370001B899A4201D10D4800E00C4807E00A4859
:1013800005E04B20400202E00120C00300BF00BF87
:101390007047000000000240A000001800366E01F7
:1013A000408651010024F40000127A0000093D003B
:1013B00070B5044600252078C007C00F00282DD046
:1013C000FC48406A0007000F012828D1F948806ACC
:1013D000012109030840000B002804D1606801289E
:1013E00001D0012070BD00BFF348F24940310862CE
:1013F00007214902A068084088420AD0A068084036
:10140000002806D020890005000DEC494018E94964
:101410008862E948401EE7494031086268E0606838
:1014200000283FD000BFE448E2494031086207216C
:101430004902A068084088420AD0A06808400028F5
:1014400006D020890005000DDC494018D949886282
:10145000D948401ED7494031086200BF00BF401C38
:101460000862D448006AD549491C0843D14908623A
:10147000D148401ECF494031086200BFFFF788FDC8
:10148000054606E0FFF784FD401B022801D9032032
:10149000A8E7C848806A012109030840000B00281A
:1014A000F0D025E000BFC448C24940310862C148BD
:1014B000006A40084000C1490843BE490862BE486E
:1014C000401EBC494031086200BFFFF761FD054680
:1014D00006E0FFF75DFD401B022801D9032081E7EC
:1014E000B448806A012109030840000B0028F0D1AC
:1014F00008212068084008287DD12069002854D0A0
:1015000000BFAD49AB4A403211620020A949096BC6
:10151000C805C00D61690843A8490143A54A116384
:10152000A549491EA34A4032116200BF00BF491CB1
:10153000116200209F49096B032292021140084664
:10154000218BC905C90D08439C490143994A116380
:101550009949491E974A4032116200BF00BF481C9A
:10156000114608629348006A9449091D084391494D
:1015700008629148401E1146086200BFFFF708FD4F
:10158000054606E0FFF704FD401B022801D90320B1
:1015900028E78848006B012109030840000B002858
:1015A000F0D0012000F00CFE25E000BF8248814908
:1015B000403108627F48006A042188437F4908431C
:1015C0007C4908627C48401E7A494031086200BF6D
:1015D000FFF7DEFC054606E0FFF7DAFC401B0228B9
:1015E00001D90320FEE67348006B0121090308407E
:1015F000000B0028F0D1022120680840022876D193
:101600006C48406A0007000F02280BD16948C06A85
:10161000402108408009002869D0E068002866D190
:101620000120DFE600BF6448624940310862E0689B
:10163000022807D15F48006A6049891C08435D4958
:10164000086226E0E068002808D15A48006A0221B2
:1016500088435A490843574908621AE0E06820283D
:1016600007D15448006A554920310843514908625E
:101670000FE05048006A02218843504908434D4911
:1016800008620846006A202188434C4908434949BA
:1016900008624948401E47494031086200BFE0687F
:1016A000002812D0FFF774FC054606E0FFF770FC37
:1016B000401B642801D9032094E63E48C06A4021BB
:1016C000084080090028F1D011E0FFF761FC0546D1
:1016D00006E0FFF75DFC401B642801D9032081E68A
:1016E0003448C06A4021084080090028F1D1042113
:1016F0002068084004285CD100BF2F482D494031A4
:1017000008628915E069884206D12A48406B2C4955
:101710000843284948633FE0E069002817D125487D
:10172000406B0121890288432449084321494863C9
:101730000846406B89158843204908431D49486382
:101740000846406B1F4908431A49486324E00121B9
:101750004902E06988420ED11648406B491088431F
:1017600016490843134948630846406B1649084325
:101770001049486310E00F48406BFF210131884356
:101780000E4908430B4948630846406B4915884396
:101790000A490843074948630748401E0549403144
:1017A000086200BFE069002820D0FFF7F1FB054682
:1017B00014E02EE0000002409966AA550000695A24
:1017C0000001695A0004695A0002695AFFF7E0FBF8
:1017D000401B1149884201D9032003E60F48406BA2
:1017E0004021084080090028F0D012E0FFF7D0FB2C
:1017F000054607E0FFF7CCFB401B0749884201D9AB
:101800000320EFE50548406B40210840800900288F
:10181000F0D10020E6E5000088130000000002403F
:10182000F0B585B004460D4616460020049000270A
:1018300003900290019001200090002C01D0002D17
:1018400002D1012005B0F0BD20680068C007C00FBC
:10185000002829D00820049000BF206887682068ED
:10186000C06803902068806802902068C06801907A
:101870000298874205D101990398884201D100203E
:1018800000900098002804D00498411E049100287C
:10189000E3D10098002813D00420607700BF002017
:1018A000207700BF0120CDE700BF00F03DFD0028FC
:1018B000FBD0206887682068C068039000F0D6FCE1
:1018C000012040053840002818D1A06800280DD11B
:1018D0001F2109043940080C00F0AEFC287028785C
:1018E0000C2825DB28780C38287021E01F210904FA
:1018F0003940080C00F0A0FC287019E0A06800280E
:101900000ED11F2109043940080C00F095FC0C3061
:101910002870287818280BDB28780C38287007E006
:101920001F2109043940080C00F086FC143028708F
:101930007F2109023940080A00F07EFC6870F8B285
:1019400000F07AFCA8700121C90303980840002820
:101950000BD0FF22120403991140080C00F06CFC1C
:101960007D2109014018706009E0FF2212040399EB
:101970001140080C00F060FC0F49401870601F22F5
:10198000120203991140080A00F056FC7070039986
:101990008806800E00F050FCB0700720000638402A
:1019A000000E3070B178A175717861757168A161B0
:1019B00030782075002045E76C07000070B50446BC
:1019C0000025002C01D1012070BD607F002803D1CB
:1019D0002077204600F094F802206077204600F03F
:1019E00053FC002021684862204600F04DFC002096
:1019F00021680862012149046068884227D17D2559
:101A0000AD01002D03D1042060770120DCE72046E2
:101A100000F03AFC20684068A905890D0843216858
:101A20004860082D09D3204600F02EFC206800688D
:101A3000400840002168086012E0204600F024FCC5
:101A400020680068012108432168086008E02046FA
:101A500000F01AFC20684068800A80022168486013
:101A6000204600F011FC2068406861680843216846
:101A70004860204600F008FC206840680121090504
:101A8000084321684860204600F0FEFBA06800285B
:101A900006D020680068042108432168086005E03A
:101AA00020680068042188432168086001214903F7
:101AB000A16101216175A17506202075204600F005
:101AC000E3FB00202168C861204600F0DDFB102206
:101AD000A256E06810432168C96908432168C861BB
:101AE00000BF204600F0D0FB20680068FF210131D4
:101AF00008432168086000BF01206077002063E789
:101B000070470000FFB583B004460E461D4600270F
:101B1000002002900190002C03D0002E01D0002D57
:101B200002D1012007B0F0BD00BF207F012801D104
:101B30000220F7E70120207700BF02206077A1682C
:101B40000598814214D00598A060204600F09CFBC7
:101B5000A068002806D02068406A04210843216854
:101B6000486205E02068406A042188432168486291
:101B70000598002818D130780C280CDB01277F0548
:101B800031780C39C8B200F064FB00041F2109044D
:101B90000840074320E0307800F05BFB00041F2181
:101BA00009040840074617E0307813280CDD0127A8
:101BB0007F0531781439C8B200F04BFB00041F21B7
:101BC00009040840074307E0307800F042FB0004B6
:101BD0001F21090408400743707800F03AFB000217
:101BE0007F21090208400743B07800F032FB074329
:101BF0002878000607436968A16169786175A9784A
:101C0000A175287820757D2109016868884208D36C
:101C10006868401A02900121C903019808430190A5
:101C200003E027496868401A02900299C8B200F0A0
:101C300010FB0004FF2109040840019908430190AA
:101C4000687800F006FB00021F2109020840019994
:101C500008430190A87800F0FCFA8006800E0199F4
:101C600008430190204600F016FB002807D004200E
:101C7000607700BF0020207700BF012052E7204698
:101C800000F002FB20688760204600F0FDFA019812
:101C90002168C860204600F022FB002807D00420FD
:101CA000607700BF0020207700BF01203AE70120C5
:101CB000607700BF0020207700BF00BF32E7000040
:101CC0006C07000070B504462546681E0949884225
:101CD00001D901200CE0681E074948610321081F53
:101CE00000F03AFD002004498861072008610020C7
:101CF00070BD0000FFFFFF0000E000E07047F8B596
:101D000004462068056920680668002704202840EA
:101D10000746002F12D1E807C00F00280ED0F007A9
:101D2000C00F00280AD0204600F084FB002804D011
:101D30002046FFF7E3FF00202063F8BD002F20D0EE
:101D400004202840002808D0206B04210843206389
:101D500020684069084321684861206B00280FD043
:101D6000E807C00F002806D0F007C00F002802D0F7
:101D7000204600F05FFB2046FFF7C0FF00202063F5
:101D8000DBE702202840002807D00220304000284E
:101D900003D0204600F0F0FBCFE700BFCDE710B541
:101DA0000446002C01D1012010BD2D20005D00282B
:101DB00005D100212C200155204600F00FF82421E8
:101DC0002D200155204600F0B3FB00202063202188
:101DD0002D2001552E2001550020E5E710B58EB0CD
:101DE0000446342101A8FEF7D7F90F48844219D1DF
:101DF0000220019002900020049005900890099024
:101E00000120039005200D9001A90848FEF772FFFC
:101E1000042001900220029005200D9001A90348A2
:101E2000FEF768FF0EB010BDA401002000100240B4
:101E300010B503462E20C05C202825D1002901D0F2
:101E4000002A01D1012010BD00BF2C20C05C012858
:101E500001D10220F7E701242C20C45400BF5962AD
:101E60001A855A850020186322242E20C45400BFEE
:101E700000242C20C45400BF1868006801242043AB
:101E80001C6820600020DEE70220DCE770B5044615
:101E900000252068006804210840002800D00125A2
:101EA000074884420AD10748017B284600F0AEFC6F
:101EB000012204490C310248FFF7BAFF70BD00004F
:101EC000A4010020D8010020FEB504460D461646A8
:101ED0001F46002001902D20005D20287ED1002D7E
:101EE00001D0002E01D10120FEBD00BF2C20005DDD
:101EF000012801D10220F7E701212C20015500BF64
:101F00000020206321212D200155FFF741F8019089
:101F100020680068022108432168086026846684DE
:101F200050E0608C401E60842069C02835D1606913
:101F300001280CD1206800680821884329782A4AA2
:101F4000515CC907090F0843216808600FE0606908
:101F500002280CD120680068082188432978224A89
:101F6000525C01219143C900084321680860287828
:101F70006D1C216848600097002202212046019BC9
:101F800000F052FB002801D00320ADE72068406933
:101F9000022108432168486114E028786D1C2168FB
:101FA00048600097002202212046019B00F03CFB84
:101FB000002801D0032097E72068406902210843E8
:101FC00021684861608C0028ABD120212D2001556B
:101FD00000BF00212C20015500BF00E001E00020DF
:101FE00082E7022080E70000AE55000030B50346CE
:101FF0002D20C05C202859D1002901D0002A01D110
:10200000012030BD00BF2C20C05C012801D102207E
:10201000F7E701242C20C45400BFD9611A845A84E4
:102020000020186321242D20C45400BF00242C203C
:10203000C45400BF18680068022420431C68206054
:102040001869C02828D1586901280CD1186800687F
:102050000824A0430C78164D2C5DE407240F204380
:102060001C6820600FE0586902280CD118680068CD
:102070000824A0430C780E4D2D5D0124AC43E400F0
:1020800020431C6820600878491C1C686060D96186
:10209000588C401E588407E00878491C1C68606012
:1020A000D961588C401E58840020AAE70220A8E776
:1020B000AE55000010B504460248844201D100F03C
:1020C000BBFB10BDA401002000BFFEE770477047B6
:1020D00000B589B0202101A8FEF75EF80820019024
:1020E000042005900B48008A079001A8FFF760F9CB
:1020F00000BF0948C0680121490408430649C86077
:102100000846C068012149040840009000BF00BF94
:1021100009B000BDA00000180000024010B5104832
:10212000C06908210840C008002803D10DA000F0B4
:10213000DDFA08E013A000F0D9FA0948C0690821C7
:1021400088430749C861184818490860C0134860A7
:1021500001211648017200214172FEF71FFF10BDD8
:10216000000002405465737420495744472052458B
:10217000534554202C4E4F205245534554210D0AAF
:1021800000000000546573742049574447205245AD
:10219000534554202C48415645205245534554211F
:1021A0002121210D0A00000000240040F40000203D
:1021B000704770477047704770477047704700001E
:1021C00038B5044608490968C8087D21C900FDF7EB
:1021D0008FFF6043009000BF00BF0098411E009138
:1021E0000028F9D138BD0000EC00002000B589B00E
:1021F000202101A8FDF7D0FF0820019004200590C0
:102200000B48008A079001A8FFF7D2F800BF0948E1
:10221000C0680121C90308430649C8600846C06870
:102220000121C9030840009000BF00BF09B000BDF4
:10223000A000001800000240014600BFF020084046
:1022400000110A23584302460807000F8018C0B245
:1022500070470146002203E0521C08460A38C1B20A
:102260000A29F9D21007000E08437047CA20054911
:102270008862532088620846006A04218843014925
:102280000862704700300040CA2102689162532101
:1022900002689162704770B504460025FEF778FE2B
:1022A000054600BF2046FFF7EFFF2068006A0121C6
:1022B00008432168086200BF08E0FEF769FE401B82
:1022C00001210904884201D9032070BD2068006AF9
:1022D0000221084040080028EFD00020F5E770B543
:1022E00004460025FEF754FE054600BF2046FFF7D2
:1022F000CBFF2068006A400840002168086200BFE8
:1023000008E0FEF745FE401B01210904884201D97F
:10231000032070BD2068006A0221084040080028A0
:10232000EFD100BFF5E700000448006A042108402F
:10233000002801D0012070470020FCE70030004059
:10234000704770477047000001B57D23DB00012214
:1023500069460248FFF7B8FD08BD000000010020F3
:1023600010B5FEF76FFE10BD00B58DB0202105A899
:10237000FDF712FF002001900290039004900120CD
:10238000059006900C480088079005A8FFF710F804
:10239000002801D0FEF7B8F9072001900120029033
:1023A00000200390049001A8FEF7A2FE002801D0AF
:1023B000FEF7AAF90DB000BDA00000180B480C49AB
:1023C00008620C480A49403908620848401E08491A
:1023D0000862002006494039086048608815886016
:1023E0000020C86008610449886070479966AA5552
:1023F000400002400100695A00ED00E010B50248BB
:10240000FEF756FA10BD0000F401002010B5024896
:10241000FEF74EFA10BD0000200200207047704702
:1024200010B50248FFF76BFC10BD0000A4010020AE
:102430007047000070B504462E20005D222872D13E
:102440002068406901210843216848612069C0284B
:1024500042D16069002807D120684068C1B2626A31
:10246000501C6062117047E06069012817D1206834
:102470004068C5B22D48415D2068006804221040C4
:102480008008814204D1626A501C6062157033E09A
:10249000E0212E20015502202063012070BD6069DB
:1024A000022829D120684068C5B22048415D2068D3
:1024B000006804221040820801209043814204D128
:1024C000626A501C6062157016E0E0212E200155F2
:1024D000022020630120E1E76069002805D0E021A7
:1024E0002E20015501202063D8E720684068C1B242
:1024F000626A501C60621170608D401E80B26085FF
:1025000000280ED12068006840084000216808605B
:1025100020212E2001552046FFF7B8FC0020BDE702
:1025200001E00020BAE70220B8E70000AE55000045
:1025300070B504462169A0680843A1690843216871
:1025400009682D2212019143084321680860FEF7B3
:10255000C1FEA168490A491C48430546606841011B
:102560002846FDF7C5FD401E80B201210904401830
:102570002168886170BD000010B504462D20005D03
:1025800021284CD120684069022108432168486114
:10259000608C411E618400280DD1206800680221F2
:1025A0008843216808602046FFF784FD20212D2004
:1025B0000155002010BD2069C02828D1606901287C
:1025C0000DD12068006808218843E1690978154A1F
:1025D000515CC907090F08432168086010E0606971
:1025E00002280DD12068006808218843E169097834
:1025F0000C4A525C01219143C900084321680860DC
:10260000E169481CE06108782168486005E0E169FB
:10261000481CE0610878216848600020CAE7022071
:10262000C8E70000AE550000FFB581B004460D4676
:1026300017460A9E1DE0701C00281AD0002E05D0F7
:10264000FEF7A6FC0499401AB04212D9206800682F
:10265000800880002168086020212D2001552E204F
:10266000015500BF00212C20015500BF032005B0FB
:10267000F0BD206800692840A84201D1012000E097
:102680000020B842D7D00020F1E770477047F8B576
:1026900004460D4601F0BEFF07463946284601F0C4
:1026A000B1FB0646A64201D30020F8BDA01BFCE703
:1026B00030B58DB004460D4634216846FDF76CFDFB
:1026C00060000849085A0090029500200490079085
:1026D00008900190A100044A50586946FEF70AFB91
:1026E0000DB030BD705500004C0000200FB410B587
:1026F00003A9044B044A029800F0FAF910BC08BC84
:1027000004B01847173F0000F00000202021020C01
:1027100001D010211046020A01D0104608390209E2
:1027200001D01046091F820801D01046891E4208B8
:1027300001D0881E7047081A704730B47446641E72
:102740002578641CAB4204D3635D5B00E31830BCA6
:1027500018471D46F8E7000010B5002819DB1A4A93
:1027600003231B02D21883089B00D2588307DC0E78
:10277000FF23A3409A438B071B0E8407E40EA3405C
:102780001A43114B032424021B198408A4001A5174
:1027900018E00E4A03071B0F083B9B089B00D2580A
:1027A0008307DC0EFF23A3409A438B071B0E84078D
:1027B000E40EA3401A43054B0407240F083CA40869
:1027C000A4001A5110BD000000E100E01CED00E083
:1027D000704702E008C8121F08C1002AFAD17047EA
:1027E0007047002001E001C1121F002AFBD1704791
:1027F00070B505460C46204602F082FD05210248D0
:1028000001F00CFF70BD0000D002002070B504463E
:102810000D4605484069002804D00348294642690E
:102820002046904770BD0000D801002000200149DB
:1028300008707047B400002010B504488069002873
:1028400002D002498869804710BD0000D8010020ED
:1028500010B54B22D2001146FF2001F0B7FC10BD8D
:1028600010B516480078401C1449087008460078D6
:102870000A280BD100F026F811480068002802D081
:102880000F48006880470020C04310BD0B48007906
:102890000A490978891E01228A401040002805D083
:1028A00005200649C8700F20887004E00F200349F6
:1028B000C870052088700020E7E70000B8000020FD
:1028C000C000002010B5002208210248FEF759FB85
:1028D00010BD00000010024010B50122082102487E
:1028E000FEF74FFB10BD00000010024010B5FF22A4
:1028F0002D321146FF2001F069FC10BD10B5C82231
:102900001146032001F062FC00F00AFF01F0B4FD63
:1029100010BD0000F0B51FB486B00998089A030DE9
:102920000021024314D05148514A1818504305144D
:102930001198012810981AD0281A401C00264D4FD3
:102940004D49009601910490002812DA444211E0AA
:102950001198012449A3012801D11098C143069878
:10296000119A84600360C26041600BB0F0BD4042C8
:10297000E4E70446210500203F4A001C5141039131
:10298000029012E0E00707D032463B4601990098DA
:10299000FDF7F0FC0191009032463B461046194687
:1029A000FDF7E8FC06460F466410002CEAD10498B7
:1029B000039B0028029A0999089806DAFDF7DAFCC9
:1029C000019B009AFDF7D6FC05E0FDF73BFD019B5E
:1029D000009AFDF737FD04460E460022284BFDF70E
:1029E000C9FD03D80020C043014607E00022254B63
:1029F00020463146FDF70CFCFDF79CFD102409E054
:102A0000002C0ADB0A220023FDF7D1FB079B3032A2
:102A10001A55641E02460A43F2D11122641C079B18
:102A2000121B1C19119B012B03D0012308430ED14B
:102A30000AE0084304D0112010900020119077E79D
:102A40001098151A6D1E0BE01098824202DD0023CB
:102A50006D1C03E0824201DA00236D1E002BEED0D4
:102A6000069811998260C16030C07EE701FCFFFFCB
:102A7000104D0000000014400000F03F3000000046
:102A80000000F0430000E03FFEB504460D46164648
:102A9000012D01D0022D01D10C35641E691C4A00A4
:102AA00088180521FDF73AFB6900891940180019BB
:102AB000E117890F091989104718642120460194EC
:102AC000FDF72CFB3F1AFF2191312046FDF726FB35
:102AD000381807210090FDF721FB481CFEBD10B5FA
:102AE0007D22D2001146FF2001F070FB10BD0000D6
:102AF000FFB597B00646002518E2252877D10024B7
:102B00002746FD49049400E00443761C32780120F6
:102B1000203A90400842F7D130782A280ED002227D
:102B2000307801463039092916D804990A235943C7
:102B3000303940181443761C0490F1E7189802C805
:102B400004911890002904DA01204003044348420C
:102B5000049002200443761C30782E2814D10420DF
:102B600004437078761C2A2809D11898761C80C8EE
:102B7000189009E00A214F43303FC719761C30787E
:102B8000014630390929F5D930786C2810D006DC97
:102B90004C281AD068280ED06A2817D104E074286F
:102BA00013D07A2812D110E00120400504430CE034
:102BB0000121090501E0032109050C4371788142D7
:102BC00003D1012000052418761C761C3078119062
:102BD00066280BD013DC58287DD009DC00287BD078
:102BE0004528F6D04628F4D047281AD1A5E118E0A8
:102BF000632835D0642870D0652812D19DE17028F3
:102C00006CD008DC6728F1D069287BD06E280DD005
:102C10006F2806D1BAE073282ED0752871D0782895
:102C200059D01A9A199990476D1C7EE16002400FA5
:102C3000022809D003280DD00428189801680DD067
:102C40000D60001D189070E11898EA1701680D607A
:102C50004A60F6E7189801680D80F2E70D70F0E71A
:102C600018986A4601781172001D18900020507261
:102C700002A80090012005E0189802C818900020D2
:102C80000091C04361070DD5002101E00199491C65
:102C90000191B94212DA8142F8DB009A515C0029B5
:102CA000F4D10BE0002101E00199491C019181421E
:102CB000FADB019A0099895C0029F5D10199049801
:102CC0001A9B471A21463846199A00F097FA01993B
:102CD000401945180BE04FE02CE113E04EE000985E
:102CE00000990078491C00911A9A19999047019807
:102CF000401E0190401CF2D1214638461A9B199A79
:102D000010E137E00A200021009001916002410F9C
:102D1000022907D0189A01CA1892C21794460329AB
:102D200008D00AE01898C01DC108C90005C918914B
:102D3000944607E000B2C2179446042902D140B27B
:102D4000C1178C4600226146944506DA0A460021E6
:102D5000404291418C462D2102E0210504D52B21D2
:102D60006A461173012103E0E10701D02021F7E752
:102D7000029155E00A200AE0102008E0102000909F
:102D80000021042004430191082703E008200021CA
:102D9000019100906002410F022907D0189A01CAE0
:102DA000189200229446032908D008E01898C01D04
:102DB000C108C90005C91891944603E080B20429EE
:102DC00000D1C0B200210291210729D511997029A3
:102DD00006D0009A1021019B4A401A4305D00EE00C
:102DE00040216A461173012108E06146014306D083
:102DF00030216A4611731199517302210291009A90
:102E00000821019B4A401A430AD16146014301D17E
:102E1000610705D530216A46117301217F1E029199
:102E20001199582904D035A10E910DA90D910DE0ED
:102E300037A1F9E76146019B009AFDF7B8F90E9BAF
:102E40008C469B5C0D9A521E0D9213706146014395
:102E5000F0D10D9805A9081A20300190600703D51C
:102E600001200004844300E001270198874201DD2E
:102E7000381A00E0002001990090411802980918C2
:102E80000498401A0490E00306D421461A9B199A2C
:102E9000049800F0B3F94519002706E003A81A9A30
:102EA000C05D199990476D1C7F1C02988742F5DB25
:102EB000E0030CD521461A9B199A049800F09EF95C
:102EC000451904E01A9A3020199990476D1C009911
:102ED000481E00900029F5DC08E00D980D99007857
:102EE000491C0D911A9A199990476D1C0199481E19
:102EF00001900029F1DC63E109280100303132330F
:102F00003435363738396162636465660000000025
:102F1000303132333435363738394142434445460F
:102F20000000000000F05AF94519761C307800289E
:102F300000D0E2E528461BB0F0BD600700D40627AC
:102F40001898C01DC108C90048680A680831C30F35
:102F5000DB071891190001D09CA108E0210501D5DB
:102F60009BA104E0E10701D09AA100E09AA14300EF
:102F700011985B08109165280CD006DC452809D013
:102F800046281DD0472841D141E0662818D067283F
:102F90003CD13CE00021112F01DB112000E0781C26
:102FA0000191009008A911A8FFF7B4FC13990591AD
:102FB0000021119A15927F1C12980197009150E000
:102FC0000120C00703900120019008A9009711A8D3
:102FD000FFF7A0FC139A149905920022119B00920E
:102FE00012981593059A0192002901D0104602E02B
:102FF000791C40180190381A01D5019804E040422C
:10300000401E0090781C0190C01B029043E0012FED
:1030100000DA01270021112F01DD112000E03846E0
:103020000191009008A911A8FFF774FC139905916C
:10303000119A0021129815920091019721070CD442
:103040000599B94201DB019900E00191012904DDF4
:10305000159A491E515C302906D0B84201DA011D8B
:1030600005DA0121029115E00199491EEDE70028DA
:1030700005DC0099411800910199091A03E0019AB1
:10308000411C914200DD01910099401A401C0290C0
:103090000120C0070390200706D4029901988142BD
:1030A00002DB0020C043029000206946C87707AFCA
:1030B000012103980337C907884224D002201190C8
:1030C0002B201290039800280CDA404203902D2008
:1030D000129007E00A210398FDF70AF830317F1EAD
:1030E000039039701199481E11900029F2DC039861
:1030F0000028EFD1791E12980870307820210840FE
:103100004530BF1E387006A8C01BC01D0390109824
:103110000078002800D00120019941180298C017BA
:103120000918039809180498401A401E0490E003F7
:1031300006D421461A9B199A049800F05FF84519A5
:1031400010980078002803D01A9A199990476D1C9E
:10315000E00324D521461A9B199A049800F04EF8F2
:1031600045191CE00098002807DB00990598884263
:1031700003DD1598405C199901E0199930201A9ADD
:10318000904700986D1C401C00900298401E0290D1
:10319000002804D11A9A2E20199990476D1C019984
:1031A000481E01900029DDDC05E038781A9A7F1C62
:1031B000199990476D1C0399481E03900029F4DC6F
:1031C00021461A9B199A0498ACE600002D000000D5
:1031D0002B0000002000000000000000F8B50446AD
:1031E00000251E461746880404D405E039462020F1
:1031F000B0476D1C641EF9D52846F8BDFFB50446DE
:10320000002581B01E46C80301D5302700E02027E5
:10321000880404D505E038460399B0476D1C641E48
:10322000F9D5284605B0F0BD10B5FDF7B1FE10BDCB
:103230000346914208DC8B4203DB934201DC002011
:1032400070470020C043FBE7934204DB8B4202DC63
:103250000020C043F4E70020F2E7000008B500BFFB
:103260001348C068012108431149C8600846C06876
:10327000C007C00F009000BF00BF48030D490860A1
:103280004B20C001486000210A4881604021016153
:103290000021416110218161FEF781FD0122064973
:1032A0000448FEF7C5FD0620FDF70CFF08BD000031
:1032B00000000240A4010020E4010020704700004B
:1032C00010B5094B01221146002000F08DFE074B7E
:1032D00001221146104600F087FE054B01221146DF
:1032E000022000F081FE10BD780000208C0000203C
:1032F000A000002010B500F0A1FE10BD08B500BF71
:1033000000BF27488068082108432549886008468F
:10331000806808210840009000BF00BF00BF20481F
:103320008068042108431E4988600846806804219B
:103330000840009000BF00BF00BF1948806801210D
:1033400008431749886008468068C007C00F00908E
:1033500000BF00BF00BF0846806802210843104933
:1033600088600846806802210840009000BF00BFC6
:1033700000BF00F01DF8FFF7A3FF00F033F800F0E6
:1033800025F800F013F802F005F802F029F801F032
:10339000EFF8044801F08AFB034800F043F908BD48
:1033A00000000240694B0000AD340000704700008F
:1033B0001FB5054B0FCB6C460FC4002000F0E6FE96
:1033C000684600F077FE1FBD7855000010B5034831
:1033D00001F0CCFE024801F00BFF10BDE9510000E6
:1033E0006D5200000EB5064903C90291019001A873
:1033F00000231A4640210090024801F041FF0EBD13
:10340000885500009002002010B501F03DF80446F8
:1034100023480078A04202D02148047013E02148DC
:103420000088401E1F49088008460088002808D1EF
:10343000FF202D3008801A480078042801D101F0BF
:103440001BF8002010BD2300FFF777F905040C14CA
:10345000151D250014480068002802D0124908688C
:10346000804719E010484068002802D00E4948689B
:10347000804711E000BF0C48C068002802D00A490C
:10348000C868804708E008488068002802D00649DC
:103490008868804700E000BF00BF0020D2E700003E
:1034A000C4000020C6000020DC02002010B5044843
:1034B0000078002803D00521024801F0AFF810BDC4
:1034C000DE000020A4030020F8B506460F4615468E
:1034D00034462770641C0C202070641CA87820706F
:1034E000641C68780E2148432070641C2879207081
:1034F000641CFF202070641C287A2070641C2A7AC7
:10350000294609312046FCF72EFE287A2418A01BF4
:10351000F8BD000010B509488078401C0749887044
:1035200008468078022801DD0020887003498978E8
:10353000E831C8B200F086FA10BD0000D9000020C2
:10354000FEB5044625786678012D12D1042E10D1DF
:10355000002001900121684601710421417101F0B0
:103560007BFAC1B268468171032101A800F030F9ED
:103570004AE0022D06D1042E04D12449E81E01F0B0
:1035800043FA41E0032D06D1042E04D1A07820494E
:1035900001F03AFA38E0042D11D1042E0FD1204663
:1035A0000930217A00910190A37962792179A0787C
:1035B00001F0EAFAA078174901F026FA24E0052D77
:1035C00010D1A07801F004FA00200190052168468E
:1035D000017104214171A1788171032101A800F0DA
:1035E000F7F811E0062D03D11E2001F02DF90BE0B4
:1035F000072D09D108A00068019001F03DF90121D3
:1036000001A800F0E5F800BFFEBD000095360000FF
:10361000D53600009B3700000700000000487047C7
:10362000D900002010B58EB00446342101A8FCF763
:10363000B3FD08200190022003900020059008901F
:1036400009900120029001A90448FDF753FBFFF700
:1036500039F9034804600EB010BD000000100240AC
:10366000C000002010B501F0FBFB002809D00120AC
:103670000649087006498978E831C8B200F0E2F9D5
:1036800002E0EA2000F0DEF910BD0000DE000020BC
:10369000D9000020F0B58DB005460E46302101A8B6
:1036A000FCF77AFD01AC02202070641C042020701D
:1036B000641C01F0D1F92070641C32462946204672
:1036C000FFF702FFC01CC7B2394601A800F080F81E
:1036D0000DB0F0BDF0B58DB005460E46302101A805
:1036E000FCF75AFD01AC03202070641C04202070FC
:1036F000641C324629462046FFF7E6FE801CC7B20E
:10370000394601A800F064F80DB0F0BD70B504466C
:103710000D462A462146052000F030FE70BD00000F
:1037200010B50A490020C04301F06EF90849C87875
:1037300000F05EF80649087800F053F8044949782B
:103740000E225143C8B200F05AF810BD55370000A0
:10375000D9000020F0B58DB005460E46302101A8F5
:10376000FCF71AFD01AC06202070641C04202070B8
:10377000641C324629462046FFF7A6FE801CC7B2CD
:10378000394601A800F024F80DB0F0BD10B504468C
:1037900021460A2000F0BEFD10BDF0B58DB00546F3
:1037A0000E46302101A8FCF7F7FC01AC0420207084
:1037B000641C2070641C324629462046FFF784FEB4
:1037C000801CC7B2394601A800F002F80DB0F0BD68
:1037D00070B504460D462A462146012000F0CEFD74
:1037E00070BD10B504462146062000F093FD10BDC3
:1037F00010B504462146022000F0F8FD10BD10B5BA
:1038000004462146032000F0F1FD10BD10B50B4821
:10381000C078401C0949C8700846C078282801DDD6
:103820000120C8700549C978491EC8B200F00AF9DC
:103830000249C878FFF7DCFF10BD0000D900002066
:1038400010B504460448047001460878FFF7C9FF24
:1038500000F076FE10BD0000D900002010B51E4813
:103860000078002800D110BD1B48C078002808D07F
:1038700019484078002804D0FFF724F800201649A2
:1038800048701548C078002805D01348C078401EFD
:103890001149C870E7E710484078002808D10E4861
:1038A0008078002804D0FFF717F801200A494870F3
:1038B00009488078002805D007488078401E0649CE
:1038C0008870D0E7FEF7CCFF002803D0052102481E
:1038D000FCF762FC00BFC6E7B800002010B5044644
:1038E000282C00DD10BD002C03D1FF2000F0AAF829
:1038F000F8E70748C4700146C978491EC8B200F00D
:10390000A1F80349C878FFF773FF00BFEAE700009A
:10391000D900002070B504460E212046FCF7FEFBBE
:10392000C5B2002C03D1E72000F08CF870BD04482C
:10393000457000F05BF82046FFF761FF00BFF5E738
:10394000D900002070B50446002C00DA70BD01F0EB
:1039500095F80546601C12490871282060434019FB
:103960008078C8702820604340194078487028202B
:103970006043401900798870FFF774FE611CC8B27B
:10398000FFF704FF282262435219117A282262436A
:10399000521910460930FFF7B9FE00BFD6E7000004
:1039A000D900002010B50F484078401C0D494870E0
:1039B00008464078072801DD0020487000F016F81E
:1039C000084949780E225143C8B2FFF718FF054A4B
:1039D0005178107901F00AF902490879024901F099
:1039E00013F810BDD90000205537000010B5022093
:1039F000044908700449C978491EC8B200F022F889
:103A000010BD0000DE000020D900002010B50B48DA
:103A10000078012802D1FFF7E9FF0CE007480078A1
:103A2000022808D100200549087005494978F0317D
:103A3000C8B200F007F80020C04310BDDE0000202F
:103A4000D9000020054908710121044A11703C2168
:103A500091700021D170517070470000B8000020B3
:103A600070B504460D46012D0AD12079002803D1F6
:103A7000204600F011F80DE0204600F05BF809E068
:103A80002079002803D1204600F054F802E02046B7
:103A900000F002F870BD000070B5044600F0BAFDF9
:103AA0002188401A85B2A0880004000E002809D0A1
:103AB000FF210902606888436060A068002801D087
:103AC000A068804760680002000E00280BD1FF212B
:103AD000090460688843012109044018606000F00F
:103AE00099FD206022E060680002000E01280BD1E1
:103AF0000F48854208DBFF210904606888430121E3
:103B000049044018606011E060680002000E02285D
:103B10000CD1A069002801D0A0698047FF210904C9
:103B200060688843032109044018606070BD00008C
:103B30008813000070B5044660680002000E00287B
:103B400000D170BD00F066FD2188401A85B2A088C2
:103B50000004000E01280BD0FF2109026068884391
:103B6000FF3001306060E068002801D0E0688047E5
:103B70000B48854206DB6069002809D02846616948
:103B8000884705E02069002802D028462169884737
:103B9000FF21090460688843606000BFD1E700002E
:103BA0008813000001460020087800024A7810437C
:103BB00000028A7810430002CA7810437047000060
:103BC000F0B585B004463749E01C085C02900298C5
:103BD000052828D006DC0300FEF7AFFD050D101305
:103BE00016216000062822D0082842D00E2849D08D
:103BF0001C2853D140E000F0D5F950E000F0B4FDAE
:103C00004DE000F0B7F94AE02649A01D085C2649BE
:103C1000087000220321084601F07AFC3FE00120F1
:103C2000224908703BE001202149087037E01D4916
:103C3000201D085C07020A46611D515C0F430025E8
:103C400014E0A01D4019801C1649085C0602A01D46
:103C50004019C01C085C801986B20919891D4819D1
:103C600000F028F80390301D281885B2BD42E8DB2B
:103C700015E0FFF723FB12E00A490919881D00F03F
:103C800015FC0CE00749A01D085C0190E01D085CD4
:103C900000900099019801F0AFFB00E000BF00BF69
:103CA00005B0F0BDF8020020D7000020D5000020AC
:103CB000D6000020FEB5044626786778A078050275
:103CC000E078401985B2304600F03CF90190019847
:103CD0004000074940184078B84201D00020FEBD9E
:103CE0002A46211D304600F059F800900098F6E76A
:103CF000A055000070B504460D462A462146052011
:103D000000F03CFB0646012E00D170BD0020FCE710
:103D100070B504460D462946204600F0A3FB064632
:103D2000002E02D1FFF78CFD02E00120FFF788FD95
:103D3000012070BD70B505460C46E1B2284601F081
:103D400057F822462946072000F018FB0646012EA8
:103D500000D170BD0020FCE770B504460D4620463A
:103D6000FFF7EEFB012070BD70B504460D462946F5
:103D7000204600F07AFB0646F0B2FFF7AFFD0120C7
:103D800070BD70B504460D462946204600F06DFB17
:103D90000646F0B2FFF7BEFD012070BDF8B505463E
:103DA0000E4617462B00FEF7C8FC0829050B112903
:103DB000171D232939463046FFF7CEFF04461EE083
:103DC00039463046FFF7D0FF044618E03946304602
:103DD000FFF7D7FF044612E039463046FFF78AFF67
:103DE00004460CE039463046FFF792FF044606E0F1
:103DF00039463046FFF79EFF044600E000BF00BF93
:103E00002046F8BD02468A4204D90023DB43981AB3
:103E1000401800E0881A704702460B46114606E03B
:103E20000878FF2802D00020C0437047491CD018F2
:103E30008842F5D80020F8E77FB504460D460020FB
:103E4000009001900294680A401C0390694601A802
:103E5000FCF782FD002803D00020C04304B070BDF1
:103E600029462046FFF7D8FF002802D00020C04393
:103E7000F4E70020F2E7FFB581B0064617461C467E
:103E80000298A04203D20020C04305B0F0BD2146F5
:103E90003046FFF7C1FF002801D1401EF5E7354647
:103EA00003E0287838707F1C6D1C3019A842F8D8C0
:103EB0000020EAE7FFB581B007461C460298A04201
:103EC00003D20020C04305B0F0BD21463846FFF7BD
:103ED000A3FF002808D038460299FFF7ADFF00285D
:103EE00002D00020C043EEE73E4600250FE00398D5
:103EF000405D02460023314600901846FCF780FEE4
:103F0000002802D00020C043DDE7761C6D1CA542CE
:103F1000EDD30020D7E770B504460D46E0B2FEF7BA
:103F200013FA002070BD30B502460020002305E0E2
:103F30001578521C2C18E0B25C1CA3B28B42F7DB44
:103F400030BD000070B5054600F012F806460024AA
:103F500007E060000549085CA84200D103E0601C4E
:103F6000C4B2B442F5DB00BF204670BDA0550000CE
:103F70000720704710B5002422460321022001F0DB
:103F8000C7FA10BD10B504466200044B995AA2004E
:103F9000034B9858FCF7ECFF10BD00007055000073
:103FA0004C00002010B500240B480078002808D1F0
:103FB0000021204601F06CF8C4B2012006490870C7
:103FC00004E00121204601F063F8C4B22246032137
:103FD000002001F09DFA10BDD800002010B500208F
:103FE00000F088F810BD0000FFB581B00546164608
:103FF0001F461C20684310494418142239462046A5
:104000000830FCF7B0F8002020606068000A000269
:10401000F1B208436060FF210902606888434018DC
:1040200060600902606888436060E8B20299FEF748
:104030003FFB05B0F0BD00003401002070B5002446
:1040400011E01C20604309494518E0B2FFF79AFFD0
:10405000002801D0012000E0002006463146284615
:10406000FFF7FEFC641C032CEBDB70BD3401002069
:1040700010B50F480078022802D008280FD103E0BD
:104080003C2000F0E1FB0DE0FF222D32114608201C
:1040900000F09CF800F05CFAFFF742FB02E0FFF74B
:1040A00039FA00BF00BF002001490870401E10BD52
:1040B0007400002070B50446054821462EC92EC064
:1040C00010380068002802D001490868804770BD98
:1040D0009401002010B504466200044B995AA200D6
:1040E000034B98580022FCF74CFF10BD765500009A
:1040F0005800002010B504466200044B995AA200F3
:10410000034B98580122FCF73CFF10BD7655000088
:104110005800002010B500241A484079194909793F
:10412000884216D117488079FF2812D01548807927
:10413000401E1449887108468079002809D1124828
:10414000C068002802D01049C86880470020C043DA
:1041500010BD0C484079002801D1012000E000206A
:104160000849487108464079002804D000F06AF8F0
:104170000448048803E000F055F8024844882046CB
:10418000E6E700005C0000209401002010B58EB02E
:104190000446342101A8FBF7FFFF60000949085AD3
:1041A0000190012002900020049005900890099051
:1041B0000390A100044A505801A9FCF79BFD0EB0E2
:1041C00010BD00007655000058000020F8B50646E6
:1041D0000C4615460027114886710079002802D048
:1041E00000F020F801E000F02DF80C4800790028DC
:1041F00001D1012000E000200849487108464079BB
:10420000002801D0274600E02F460448048045805E
:104210003946034800F002FAF8BD00005C000020B7
:104220008801002010B500200449C8710448806846
:10423000002802D002498868804710BD5C00002039
:104240009401002010B501200449C8710448406859
:10425000002802D002494868804710BD5C00002059
:104260009401002010B50446214603A0FEF73EFA53
:1042700000F010F910BD00006C6F6E675F63625F45
:104280007062322074203A25640A000010B504469A
:10429000214603A0FEF72AFA00F0FCF810BD00004A
:1042A0006C6F6E675F63625F70623220743A256480
:1042B0000A00000010B50446214603A0FEF716FAD6
:1042C00000F0E8F810BD00006C6F6E675F63625F1E
:1042D00070623320743A25640A000000FCF7BEFEC9
:1042E000FEF742F800F06EFEFDF7F2FEFDF716FF56
:1042F000064800F0E1F9FFF701F806E00448FCF792
:1043000091FE00F0A7F9FEF7F5FFF7E7293200006C
:10431000F400002070B504460D46002616480078CB
:10432000012800D170BD2146304600F0B1FE06469E
:104330000121304600F0ACFE06460021304600F078
:10434000A7FE06460121304600F0A2FE0646002DDB
:1043500005D10021304600F09BFE064604E0012115
:10436000304600F095FE064632460321072001F054
:10437000CFF80120D6E70000D4000020F7B50646AC
:104380001446002718480078012800D1FEBD3146A8
:10439000384600F07DFE07460021384600F078FEE2
:1043A00007462546E017000E40190004010E384666
:1043B00000F06EFE0746E017000E401900120002E2
:1043C000201AC1B2384600F063FE0746224638463E
:1043D000019900F04BFE07463A460321072001F001
:1043E00097F80120D2E70000D400002070B5054600
:1043F0000C4600261A480078012800D170BD2946D5
:10440000304600F045FE06460221304600F040FEF0
:1044100006460021304600F03BFE064604213046A9
:1044200000F036FE0646210E304600F031FE06460C
:104430002002010E304600F02BFE06462004010E3D
:10444000304600F025FE0646E1B2304600F020FE80
:10445000064632460321072001F05AF80120CDE735
:10446000D400002002461078704710B503460C4671
:104470001846FFF797FB10BD10B5002203211C2042
:1044800001F046F810BD00000148007870470000B8
:10449000D700002010B50020034908700022032136
:1044A000042001F035F810BDD50000207CB504468D
:1044B0002078012809D1A0796179009101902379B0
:1044C000E278A178607800F033FD7CBDF0B5054658
:1044D0000E4613462A463446002D01D0002E01D147
:1044E0000020F0BDA24202D9E018904208D200217B
:1044F00003E0605C5054481C81B29942F9DB09E04A
:10450000194605E0481E205C4F1ED055481E81B25A
:104510000029F7DC2846E4E701460022002900D103
:104520007047002200E0521C0B78491C002BFAD186
:104530001046F5E710B500F03FF80020C04310BD6D
:1045400010B5C821014800F069F810BD980300209B
:1045500010B500F093FA0446192149012046FBF7F3
:104560001BFE0121890279204002FFF765FC10BD86
:1045700070B5FFF753F8044600F080FA054600F0E6
:1045800033FC064605232246012149020F20000381
:10459000FFF771FC19235B012A460121890279206A
:1045A0004002FFF768FC3C233246012149027B2090
:1045B0004002FFF760FC70BD70B5FFF72FF80446AE
:1045C00000F05CFA054600F00FFC06460523224683
:1045D000012149020F200003FFF76CFC19235B0146
:1045E0002A460121890279204002FFF763FC3C231F
:1045F0003246012149027B204002FFF75BFC70BD7F
:1046000010B50020FFF776FD10BD10B50020FFF7B4
:1046100061FD10BD10B500F05DF810BD70B5054628
:104620000C46224601212846FCF76FF870BD002198
:104630000170416070470000054800BF0168002913
:1046400000D1704700220A604A608A600830F5E7AE
:104650000400002070B5164D00BF2C68002C00D15E
:1046600070BD2078002800D120E02078022808D0F2
:104670002078012819D1A1686068FEF708F80028A1
:1046800013D1686880470646002E03DA2046FFF7FC
:10469000CEFF09E0002E03D1FFF7BCFFA06003E0CE
:1046A00031462046FFF7BAFF00BF00BF0835D4E708
:1046B000040000207047704710B50446FFF7FAFF6A
:1046C000FFF7F9FFFFF7B8FF0148046010BD0000D5
:1046D0000000002010B505480068002800D110BD7A
:1046E00002480068804704462046F8E700000020A2
:1046F00010B505A0FDF7FAFF7D22D2001146032078
:10470000FFF764FD10BD0000707265737365645F30
:1047100063625F7062320A0010B505A0FDF7E6FF24
:104720007D22D20011460320FFF750FD10BD00008E
:10473000707265737365645F63625F7062320A00F2
:1047400010B505A0FDF7D2FF7D22D200114603204F
:10475000FFF73CFD10BD0000707265737365645F08
:1047600063625F7062330A003EB50024002000904F
:104770000190029025A0FFF7CFFE85B22A4623A123
:10478000204600F073FCC4B222A0FFF7C5FE85B23C
:104790002A4620A1204600F069FCC4B222A0FFF7FF
:1047A000BBFE85B22A4620A1204600F05FFCC4B2C1
:1047B0001FA0FFF7B1FE85B22A461DA1204600F0DA
:1047C00055FCC4B21CA0FFF7A7FE85B22A461AA169
:1047D000204600F04BFCC4B219A0FFF79DFE85B245
:1047E0002A4617A1204600F041FCC4B215A0FFF7ED
:1047F00093FE85B22A4613A1204600F037FCC4B2CE
:1048000022460321012000F083FE3EBD7B22702260
:104810003A2200003236787467616D7933747631EC
:104820006177686C00000000222C2276223A220078
:10483000312E302E30000000222C226D223A000052
:10484000320000007D00000010B504460120084938
:104850000870FF22F5321146FF20FFF7B7FC7D20DC
:10486000C000604301460348FFF7D8FE10BD0000BA
:10487000DF000020D006002010B50648FFF7D7FE65
:10488000FF22F53211460120FFF7A0FC002002496B
:10489000087010BDD0060020DF00002010B53B4896
:1048A0000078012818D1394840880C2802DD002002
:1048B000C04310BD35488088FF214131884202DD68
:1048C0000020C043F5E7314880885A2802DA0020EA
:1048D000C043EEE70020ECE7FF242C4840882B493A
:1048E0008988884209DA29488088052805DD274813
:1048F0008088212801DA00240EE02448808823499A
:104900004988884208DA21484088052804DD1F4884
:104910004088212800DA0124FF2C02D10020C04366
:10492000C7E71A48007801280EDD184800781228D9
:104930000ADA1648C088154909781122521A214608
:10494000914008431149C8801048007811280EDDB5
:104950000E4800781A280ADA0C48007A0B490978C0
:104960001922521A21469140084308490872074803
:104970000078192807D1012005490870FF21F53179
:104980000448FFF74BFE002093E700006C02002074
:10499000700000207802002030B503460C4600214C
:1049A0000FE028204843094D42191078002807D00D
:1049B000D088984204D1D078A04201D1084630BDB9
:1049C000491C1429EDDB0020C043F8E7B0030020A8
:1049D00070B50446142C02DD0020C04370BD601E7B
:1049E00028214843074945182878002801D1401E4E
:1049F000F4E728212846FBF7CFFBFFF7A1FD0020B5
:104A0000ECE70000B0030020F8B505460E46142D73
:104A100000DDF8BD002418E0282060430D49471848
:104A2000002D05DA3878002802D03946601CB047DE
:104A3000002D09DD601C854206D13878002803D09E
:104A40003946601CB047E4E7641C142CE4DB00BF6B
:104A5000DFE70000B003002010B50020002108E0CF
:104A600028234B43044C1A191378002B00D0401C08
:104A7000491C1429F4DB10BDB00300200048704726
:104A8000B0030020002109E028204843064BC2184B
:104A90001078002801D108467047491C1429F3DB1F
:104AA0000020C043F8E70000B003002010B58EB02E
:104AB0000446342101A8FBF76FFB1020019002206F
:104AC00003900020059008900990029001A90348E6
:104AD000FCF710F9024804600EB010BD0018024047
:104AE0006C00002010B510211C48FCF741FA044668
:104AF0001B480078002800D010BD002C20D0194899
:104B0000407800281CD117480078002803D10120E4
:104B10001449087010E0FFF7C1FE002808D11148C1
:104B20000078401C0F49087000204880888003E00E
:104B30000A210C48FBF730FB01200A49487008E0C5
:104B4000002C06D107484078002802D000200549F3
:104B5000487000F00BF900BFCEE7000000180240DB
:104B6000700000206C02002070B504460D462946F6
:104B7000204600F055F829462046FFF70DFF06466F
:104B8000FEF7E0FE70BD0000FFB581B006460F469F
:104B90000A9D142E03DD0020C04305B0F0BD202D7A
:104BA00002DD0020C043F8E7701E282148430E496B
:104BB00044182078002801D1401EEEE7A7700E218E
:104BC0000398FBF7ABFA607004982071002D06D0B3
:104BD00025722A46204609300B99FBF7C4FAFFF7E5
:104BE000AFFC0020D9E70000B003002070B50446F8
:104BF0000E46142C02DD0020C04370BD601E28212B
:104C00004843064945182878002801D1401EF4E79A
:104C10006E70FFF795FC0020EFE70000B003002066
:104C2000F3B583B04DA103C9029101904D480078BE
:104C3000002801D105B0F0BD04990398FFF7ACFE40
:104C40000446651C0021C9438C421DDDFEF7E6FCCD
:104C50000746F97828206043434A801881707978A4
:104C60002820604380184170B9782820604380185C
:104C700001712820604381182846FEF76BFDFFF77D
:104C80005FFCFFF7F9FDD5E7FFF7FCFE0446002CBB
:104C900000DACFE7651CFEF7C1FC0646012128209B
:104CA0006043314A11542821614389180398C88010
:104CB0002821614389180498C870F178282060433E
:104CC0008018817071782820604380184170B17815
:104CD00028206043801801710A2D0BDA6846C079DC
:104CE0004019C1B26846C171042128206043801870
:104CF000017219E00A212846FBF710FA6946C979C2
:104D00004018C1B26846C1710A212846FBF706FA6D
:104D10006846407A0818C1B26846417206212820C8
:104D20006043114A80180172282161430E4BC91853
:104D30000A7A28216143C9180846093001A9FBF7FE
:104D400012FA28206043084A81182846FEF702FD1F
:104D5000FFF7F6FBFFF790FD00BF6BE7FEFF0030AB
:104D600000300000DF000020B00300200A48007877
:104D7000002800D1704708484078002805D0064830
:104D80004088401C0449488004E003488088401C57
:104D90000149888000BFEDE76C02002010B50020BB
:104DA00005490870FF22F53211460120FFF70EFA7F
:104DB0000020C04310BD0000DF00002010B50748F0
:104DC0000068002805D0064A117AD088034A126884
:104DD0009047002003490870401E10BD6C00002061
:104DE0006C0200207000002000487047DC060020A4
:104DF000F8B506460F4634460025641C1FE0012125
:104E000006206843154A115421780620684380180B
:104E10004170641C207800026178401881B206203D
:104E2000684380184180A41C2078000261784018F3
:104E300081B20620684380188180A41C6D1CA01BD1
:104E4000B842DCD105E0002106206843034A115432
:104E50006D1C0A2DF7DBFFF773FBF8BDDC060020A5
:104E60003EB50020009001900290684600F088F85E
:104E7000694608783C21484369464978451800242A
:104E80004EE0062060432949085C002801D1401EFD
:104E90003EBD0620604325494018407880210840E7
:104EA000002800D13BE006206043204940184078AC
:104EB000802816D1062060430B46C0188288062041
:104EC0006043C01841882846FEF7B2F9002808D18F
:104ED000002106206043154A1154FFF731FB0020E2
:104EE000D6E7062060431149401840786946097AA0
:104EF0000622521A01219140084000280ED00620B7
:104F000060430A4BC018828806206043C01841885D
:104F10002846FEF78DF9002800D1B9E700BF641CD0
:104F20000A2CAEDB0020C043B2E70000DC06002004
:104F3000FEB504460D4616461F460020009001901F
:104F400002907D20000121186846C1800571C6705D
:104F5000077008994170099981706B46DA78197960
:104F6000D888FDF791FD6B461872187A072802D190
:104F7000002069460872684600F058F8FEBD00003F
:104F80003EB5044600200290009001906A4602A9B6
:104F90000B48FCF745FC6846007A20706846407A6A
:104FA00060706846807AA07068468078E0706846D5
:104FB000407820710198E0806846007820723EBDFC
:104FC0004C0200200EB50020029000900190144881
:104FD00014490860801348600421124881608901E7
:104FE000C1600021017400200E494877FDF7FEF8EA
:104FF0000C48FCF7E3FC00216846017241728172A3
:1050000001218170417008480190002168460170BB
:1050100004486B4602A98268FCF774FD0EBD0000CF
:10502000003000404C020020E50700003EB5044679
:10503000002002900090019021786846017261780A
:105040004172A1788172E178817021794170E088A4
:105050000190217A6846017003486B4602A9826874
:10506000FCF750FD3EBD00004C020020F8B50446A0
:105070000E461546054807192A4631463846FFF7B9
:1050800025FA601984B22046F8BD000064030020B0
:10509000024B1A181170431C98B270476403002029
:1050A00010B50446214607A0FDF720FB0A4800780A
:1050B000401C09490870FF21F5310848FFF7AEFA96
:1050C00010BD000073686F72745F63625F7062325C
:1050D0002074203A25640A00740000208402002015
:1050E00010B50446214603A0FDF700FBFEF78EFB3A
:1050F00010BD000073686F72745F63625F7062322C
:1051000020743A25640A000010B50446214603A025
:10511000FDF7ECFAFEF746FC10BD000073686F72F5
:10512000745F63625F70623320743A25640A000022
:105130000B4909680B4A126891420FD008490A6866
:1051400009498A4202D34739054A1160044909686E
:10515000087803490968491C014A1160704700003A
:10516000D0000020CC0000205E03002038B50446AB
:1051700000BF1748C068402108431549C860084669
:10518000C06840210840009000BF00BF114812498C
:1051900008600021104801614021416100218161C6
:1051A000C1610162FCF796F805460C49FAF7A0FFC9
:1051B0000B49091A08484162FBF74EFB0648FBF70A
:1051C00068FB0E20FBF77EFF0648046038BD000038
:1051D0000000024000180040F4010020A0860100F9
:1051E000FFFF00006400002010B5FFF77BFC10BD3E
:1051F00038B5044600BF1748C06840210843154928
:10520000C8600846C06840210840009000BF00BF49
:105210001148124908600021104801614021416194
:1052200000218161C1610162FCF754F805460C4917
:10523000FAF75EFF0B49091A08484162FBF70CFBBD
:105240000648FBF726FB0F20FBF73CFF06480460EF
:1052500038BD00000000024000190040200200207C
:1052600010270000FFFF00006800002010B5FEF7C7
:10527000F5FA10BD10B500F0C5F80020C04310BD10
:10528000F8B506460F4614461D461C210B48FAF792
:1052900083FF0A48C78106610146069805C88A61EE
:1052A000486108460021016041608160046085809A
:1052B0000181C18000BFFDF7D1FFF8BDD8010020FA
:1052C00070B505460C46002C01D1481E70BD0A4839
:1052D000C089A04202DA0020C043F7E7064922460F
:1052E00008692946FAF73FFF034822460169034847
:1052F000FCF77CFE0020E9E7D8010020A401002093
:1053000012490968124A1268891A01291CD01049E9
:1053100009680E4A1268914206D90D4909680B4A7C
:105320001268891A47290FD209490A6809498A422D
:1053300002D34739064A11600549096808700449D3
:105340000968491C024A116070470000D000002023
:10535000CC0000205E03002070B504460D462946AF
:10536000204600F001F870BD70B504460D4602E01D
:105370000520FBF7DBFA064800780028F8D1012069
:105380000349087029462046FFF79AFF70BD0000C8
:10539000B40000200548064908600649086000205E
:1053A00005490870FF200549087070471703002061
:1053B000CC000020D0000020D4000020D700002026
:1053C00070B504467D21C9000348FFF727F903485B
:1053D00021462EC92EC070BDEC020020DC02002048
:1053E0001FB5044B0FCB6C460FC46846FFF7E8FFB0
:1053F0001FBD000090550000002802D1002900D0F8
:1054000000BF704770B50024002509E0FFF790FE4B
:1054100036490A880988491C344B19803449885414
:10542000324800881F2803D200F094F80028EDDCF1
:105430002E480088072800DA70BD3FE02C48005D48
:10544000552802D0601C84B238E02949601C085CF1
:10545000AA2802D0601C84B230E02549A01C085C58
:10546000002802D0A01C84B228E02149201D085C3D
:105470000502601D085CC01D401985B2262D02D9A9
:10548000E01C84B21AE019480088001BA84200DA28
:1054900019E06A1E91B2164A1019FEF744FD61190F
:1054A000491E134A515C884202D0E01C84B205E0D8
:1054B0002046FEF785FB601984B200BF0B480088C8
:1054C000001B0728BADA00BF08480088001B0749FC
:1054D000088008460088002806DD054801190348B1
:1054E00002880348FEF7F2FF00BFA5E7C8000020CE
:1054F000F802002070B505460C46002D01D0002CA6
:1055000000D170BD21462846FFF726FF00BFF8E70F
:10551000F8B505460E461446002755200C4908707C
:10552000AA20487008468670C570201208714C7118
:10553000E01D84B2601E81B20548FEF7F4FC074608
:10554000601E03490F5421460148FFF7D3FFF8BD01
:105550005E0300200448006804490968884201D0BD
:10556000012070470020FCE7CC000020D000002084
:105570001000200008004000DD3F00000B46000046
:105580000146000000000000F12700002D28000067
:10559000ED28000051280000FD280000DF2A00004F
:1055A0000100020203020500060107000A020001D1
:1055B00001000100000101000001000101000100E3
:1055C00000010001010000010100010000010100D3
:1055D00000010001010000010100010000010001C3
:1055E00001000100000101000001000101000100B3
:1055F00000010001010000010100010000010001A3
:105600000100010000010100000100010100000192
:105610000100010000010100000100010100010082
:105620000001000101000001010001000001010072
:105630000001000101000001010001000001000162
:105640000100010000010100000100010100000152
:105650000100010000010100000100010100010042
:105660000001000101000001010001000001000132
:105670000100010000010100000100010100010022
:105680000001000101000001010001000001010012
:105690000001000101000001010001000001000102
:1056A00001000100000101000001000101000000F3
:1056B000D056000000000020F4000000D2270000B7
:1056C000C4570000F400002044080000E227000056
:1056D0000000000088010020154100007802002031
:1056E000BD4D00008402002071400000D002002067
:1056F000755200009803002035450000A4030020E7
:105700000D3A0000D00600209D4D0000EC02002064
:1057100009340000000000000000000000140240F6
:105720000014024000180240001C0240000000006B
:105730000000000000000000000000000000000069
:105740000000000000000000000000000000000059
:10575000A150000065420000F1460000000000007A
:1057600000000000E15000008D42000019470000D9
:10577000000000000000000009510000B5420000D8
:105780004147000000000000000000000000000091
:105790000000000000002C010000000000000000DC
:1057A00000000000000000000000040101000000F3
:1057B00000000000040000000100000000093D009E
:0457C00000000000E5
:04000005000000C136
:00000001FF
